:100000000C9463000C948B000C948B000C949F0751
:100010000C949F070C949F070C948B000C948B00FE
:100020000C948B000C948B000C948B000C948B0024
:100030000C948B000C948B000C948B000C948B0014
:100040000C9455070C948B000C9423070C94FD061C
:100050000C948B000C948B000C948B000C948B00F4
:100060000C948B000C948B000000000024002700EF
:100070002A0000000008000201000003040700003D
:1000800000000000000000000000230026002900FE
:1000900000000000250028002B00040404040404D0
:1000A0000404020202020202030303030303010227
:1000B00004081020408001020408102001020408F6
:1000C00010201708380F11241FBECFEFD8E0DEBF75
:1000D000CDBF11E0A0E0B1E0EAE8F4E202C0059093
:1000E0000D92AE3EB107D9F723E0AEEEB1E001C00C
:1000F0001D92A039B207E1F710E0C2E6D0E004C0DB
:100100002197FE010E94FC11C136D107C9F70E9458
:1001100074090C9438120C9400000F931F93CF9322
:10012000DF93C0913C03EDE3F3E0CD3211F0ECE35B
:10013000F3E08F0120E030E0A901D801DD918D01CD
:1001400080ED8D0F8A3090F4AAE0B0E00E94021298
:100150002D2FDD0F330B440B550B260F371F481F78
:10016000591F2053310941095109E7CFA4E6B0E0F6
:100170000E940212AB01BC01DF01819190ED980F4A
:100180009A30D0F38E3259F511968C91119790EDEB
:10019000980F9A3020F5082E000C990BC0972AE092
:1001A000289F8001299F100D1124012E000C220B85
:1001B000330B400F511F621F731F12968C9190EDED
:1001C000980F9A3060F4082E000C990BC097092EF6
:1001D000000CAA0BBB0B480F591F6A1F7B1FCD32A7
:1001E00039F470956095509541955F4F6F4F7F4FF3
:1001F000CB01BA01DF91CF911F910F9108954F92DA
:100200005F926F927F928F929F92AF92BF92CF92A6
:10021000DF92EF92FF921F93CF93DF93CCE3D3E073
:10022000FE01C12CD12C7601119180ED810F8A3015
:10023000A8F4AAE0B0E0A70196010E940212C12E24
:10024000110FDD08EE08FF08C60ED71EE81EF91EC6
:1002500080E3C81AD108E108F108E6CFC701B6016A
:1002600024E630E040E050E00E94DA119B01AC014E
:1002700060EA76E881E090E00E94B6114B015C01F3
:100280009E01899190ED980F9A30D0F38E3221F52E
:10029000E901219680E1482E87E2582E612C712CCD
:1002A000A99180ED8A0F8A30B8F40A2E000CBB0B9E
:1002B000D097A30192010E940D12860E971EA81ED0
:1002C000B91EC301B2012AE030E040E050E00E94D4
:1002D000DA1129013A01E4CFC701B60124E630E082
:1002E00040E050E00E94DA1160E472E48FE090E0B8
:1002F0000E94B6116B017C01C501B4016D5F7F4F97
:100300008F4F9F4F26E030E040E050E00E94DA112E
:10031000C701B601620F731F841F951FDF91CF9134
:100320001F91FF90EF90DF90CF90BF90AF909F9084
:100330008F907F906F905F904F900895AF92BF9293
:10034000CF92DF92EF92FF920F931F93CF93DF93A1
:100350006C017B018B01040F151FEB015E01AE18D0
:10036000BF08C017D10759F06991D601ED91FC91F2
:100370000190F081E02DC6010995892B79F7C5011F
:10038000DF91CF911F910F91FF90EF90DF90CF9071
:10039000BF90AF900895FC01538D448D252F30E020
:1003A000842F90E0821B930B541710F0CF96089582
:1003B00001970895FC01918D828D981761F0A28DAF
:1003C000AE0FBF2FB11D5D968C91928D9F5F9F7375
:1003D000928F90E008958FEF9FEF0895FC01918D2B
:1003E000828D981731F0828DE80FF11D858D90E098
:1003F00008958FEF9FEF0895FC01918D228D892F35
:1004000090E0805C9F4F821B91098F73992708951C
:1004100089E492E00E94FC0121E0892B09F420E0AC
:10042000822F089580E090E0892B29F00E94080235
:1004300081110C9400000895FC01A48DA80FB92F20
:10044000B11DA35ABF4F2C91848D90E001968F73FC
:100450009927848FA689B7892C93A089B1898C911B
:10046000837080648C93938D848D981306C002886A
:10047000F389E02D80818F7D80830895EF92FF9234
:100480000F931F93CF93DF93EC0181E0888F9B8DB7
:100490008C8D98131AC0E889F989808185FF15C071
:1004A0009FB7F894EE89FF896083E889F989808194
:1004B0008370806480839FBF81E090E0DF91CF9163
:1004C0001F910F91FF90EF900895F62E0B8D10E085
:1004D0000F5F1F4F0F731127E02E8C8D8E110CC0F4
:1004E0000FB607FCFACFE889F989808185FFF5CF3F
:1004F000CE010E941C02F1CFEB8DEC0FFD2FF11D00
:10050000E35AFF4FF0829FB7F8940B8FEA89FB897B
:1005100080818062CFCFCF93DF93EC01888D8823D9
:10052000B9F0AA89BB89E889F9898C9185FD03C056
:10053000808186FD0DC00FB607FCF7CF8C9185FF3B
:10054000F2CF808185FFEDCFCE010E941C02E9CF62
:10055000DF91CF910895833081F028F4813099F0B4
:100560008230A9F008958730A9F08830C9F084302E
:10057000B1F4809180008F7D03C0809180008F77DF
:1005800080938000089584B58F7784BD089584B5E5
:100590008F7DFBCF8091B0008F778093B00008955E
:1005A0008091B0008F7DF9CF1F93CF93DF93282FD9
:1005B00030E0F901EE58FF4F8491F901E255FF4F09
:1005C000D491F901E656FF4FC491CC23A9F0162F20
:1005D00081110E94AB02EC2FF0E0EE0FFF1FE057FD
:1005E000FF4FA591B4918FB7F894EC91111108C009
:1005F000D095DE23DC938FBFDF91CF911F910895BB
:10060000DE2BF8CFCF93DF9390E0FC01E255FF4F54
:10061000249186569F4FFC0184918823D1F090E06D
:10062000880F991FFC01E859FF4FA591B491FC0177
:10063000E057FF4FC591D49161110EC09FB7F89458
:100640008C91E22FE0958E238C932881E223E8831E
:100650009FBFDF91CF9108958FB7F894EC91E22B73
:10066000EC938FBFF6CF3FB7F8948091330290910F
:100670003402A0913502B091360226B5A89B05C080
:100680002F3F19F00196A11DB11D3FBFBA2FA92F11
:10069000982F8827BC01CD01620F711D811D911D0E
:1006A00042E0660F771F881F991F4A95D1F708957A
:1006B0008F929F92AF92BF92CF92DF92EF92FF9272
:1006C0004B015C010E9433036B017C010E943303E8
:1006D0006C197D098E099F09683E7340810591055B
:1006E000A8F321E0821A9108A108B10888EEC80E8B
:1006F00083E0D81EE11CF11C81149104A104B10413
:1007000029F7FF90EF90DF90CF90BF90AF909F9030
:100710008F9008952FB7F89460912F027091300256
:1007200080913102909132022FBF089520913902B9
:1007300030913A022817390771F49091370280916D
:100740003802981741F0E0913702F0E0E251FE4F95
:10075000808190E008958FEF9FEF08950895EF92C4
:10076000FF920F931F93CF93DF93DC015C96ED9084
:10077000FC905D97E114F10479F481E090E0139628
:100780009C938E93129790E080E0DF91CF911F9120
:100790000F91FF90EF9008955196ED91FC91529733
:1007A00050968C915097982F90950FB75E962C91FC
:1007B0005E97122F127021FD6095F894208111230D
:1007C00019F1282B2083E7012197F1F728E0462F24
:1007D00050E0308160FF1AC0382B3083E701219749
:1007E000F1F7BA0175956795215089F7112381F0CA
:1007F0008081892380830FBF5C968D919C910197A6
:10080000F1F781E090E0C1CF2923DCCF3923E5CF98
:100810009081892BEFCF2091390230913A0228172D
:10082000390771F4809138022091370290E0805CA2
:100830009F4F821B910960E470E00E94C6110895E9
:1008400090E080E008952091390230913A02281713
:100850003907B9F49091370280913802981789F0DE
:10086000E0913702F0E0E251FE4F808120913702A3
:1008700030E02F5F3F4F2F7333272093370290E0F4
:1008800008958FEF9FEF0895089590E080E0089518
:10089000CF93DF93EC0160E08E810E94D40261E08F
:1008A0008E810E94D40260E08E810E94D4028BE887
:1008B00091E00197F1F7DF91CF910895CF92DF9208
:1008C000EF92FF920F931F93CF93DF936C017C0104
:1008D00087E0E80EF11CD0E0C0E0062F10E0B80180
:1008E0000C2E02C0759567950A94E2F76170F701C6
:1008F00081917F010E94D4022196C430D10579F7FD
:10090000C601DF91CF911F910F91FF90EF90DF9083
:10091000CF900C944804CF92DF92EF92FF920F9306
:100920001F93CF93DF93EC01F62E642F8C810E94EE
:10093000D4028D818F3F19F060E00E94D4020F2D08
:1009400010E08F8584FF25C06E0187E0C80ED11CA2
:10095000F12CE12CB8010E2C02C0759567950A9414
:10096000E2F76170F60181916F010E94D402FFEFFE
:10097000EF1AFF0A88E0E816F10461F7CE01DF9173
:10098000CF911F910F91FF90EF90DF90CF900C943B
:100990004804B80184E0759567958A95E1F7CE0122
:1009A0000E945E046F2DCE01DF91CF911F910F91B8
:1009B000FF90EF90DF90CF900C945E0440E0682FA2
:1009C00088E793E00C948B0481E00E94DE048BE3C3
:1009D0009FE10197F1F70895CF93DF93823029F4D7
:1009E0009091870398609093870380938B03109274
:1009F0008C0380E480938D0380E180938E0380E5F7
:100A000080938F0361E080917C030E9402038091B8
:100A10007D038F3F19F061E00E94020361E0809145
:100A20007E030E940203C8E7D3E09E0128573340AB
:100A30008091870384FD0BC084E090E02196281705
:100A4000390744F461E08E810E940203EECF88E012
:100A500090E0F4CF8BE39DE00197F1F760E08091A7
:100A60007C030E94D40260E080917E030E94D40245
:100A700080917D038F3F19F060E00E94D402809145
:100A8000870384FD34C063E088E793E00E945E043E
:100A9000CBE4D6E4CE010197F1F763E088E793E079
:100AA0000E945E042197F1F763E088E793E00E94DB
:100AB0005E0483E592E00197F1F762E088E793E056
:100AC0000E945E048091870380620E94DE0484E0BD
:100AD000809388038CE00E94DE040E94E40482E09C
:100AE0008093890386E0DF91CF910C94DE048062CD
:100AF0000E94DE048BE496E40197F1F7809187036E
:100B000080620E94DE0483E592E00197F1F7809114
:100B1000870380620E94DE04D5CF90918B038917F2
:100B200010F08FEF890FE82FF0E0E858FC4F848930
:100B300080680C94DE0441E00E948B0481E090E028
:100B40000895FB0101900020E9F73197AF01461BA2
:100B5000570BDC01ED91FC910280F381E02D0994AB
:100B60008F929F92AF92BF92EF92FF920F931F933B
:100B7000CF93DF93CDB7DEB7A1970FB6F894DEBF62
:100B80000FBECDBF7C01FA01CB0119A2223008F4BF
:100B90002AE08E010F5D1F4F822E912CB12CA12CCB
:100BA000BF01A50194010E94DA11F901CA016A305E
:100BB0000CF5605DD8016E938D01232B242B252B22
:100BC00079F790E080E0109721F0BD01C7010E9405
:100BD000A105A1960FB6F894DEBF0FBECDBFDF9181
:100BE000CF911F910F91FF90EF90BF90AF909F908A
:100BF0008F900895695CDECFCF93DF93BC0189E5C8
:100C000093E00E94A105EC0160E371E089E593E0C7
:100C10000E94A1058C0F9D1FDF91CF9108952F9207
:100C20003F924F925F926F927F928F929F92AF927C
:100C3000BF92CF92DF92EF92FF921F93CF93DF93F9
:100C4000EC016A017B01722EAB019601CB01B6016A
:100C50000E94B11163E371E0811126C04601570182
:100C6000E894B7F82FEF3FEF4FE75FE7C501B40116
:100C70000E94B11181110CC02FEF3FEF4FE75FE7EA
:100C8000C501B4010E94E70F67E371E0181664F034
:100C90002FEF3FEF4FE75FE4C701B6010E943F111E
:100CA0001816B4F46BE371E0CE01DF91CF911F9180
:100CB000FF90EF90DF90CF90BF90AF909F908F907C
:100CC0007F906F905F904F903F902F900C94A10574
:100CD0002FEF3FEF4FE75FECC701B6010E94E70F30
:100CE00087FDE0CF20E030E0A901C701B6010E94F6
:100CF000E70F312C212C87FF0DC0E881F98101908D
:100D0000F081E02D6DE2CE0109951C01F7FAF09417
:100D1000F7F8F09410E060E070E080E09FE3711677
:100D200041F020E030E040E251E40E94EC0F1F5F10
:100D3000F6CFA70196010E947B0F2B013C010E9478
:100D40005E104B015C012AE0BC01A401CE010E94AF
:100D5000B0057C01E20CF31C1123E1F1C501B401E3
:100D60000E948D109B01AC01C301B2010E947A0F59
:100D70004B015C01E881F9810190F081E02D6EE288
:100D8000CE010995E80EF91E115020F120E030E067
:100D900040E251E4C501B4010E9444112B013C0121
:100DA0000E945E104B01B12CA12C2AE0B501A401D8
:100DB000CE010E94B005E80EF91EC501B4010E94E3
:100DC0008D109B01AC01C301B2010E947A0F4B014F
:100DD0005C01DACFC701DF91CF911F91FF90EF90B7
:100DE000DF90CF90BF90AF909F908F907F906F904B
:100DF0005F904F903F902F9008951F920F920FB6E3
:100E00000F9211242F933F934F935F936F937F9390
:100E10008F939F93AF93BF93EF93FF9389E492E0F7
:100E20000E941C02FF91EF91BF91AF919F918F9112
:100E30007F916F915F914F913F912F910F900FBED6
:100E40000F901F9018951F920F920FB60F921124BA
:100E50002F938F939F93EF93FF93E0915902F0911B
:100E60005A028081E0915F02F091600282FD1BC016
:100E70009081809162028F5F8F732091630282174D
:100E800041F0E0916202F0E0E75BFD4F958F8093C7
:100E90006202FF91EF919F918F912F910F900FBE62
:100EA0000F901F9018958081F4CF1F920F920FB66C
:100EB0000F9211242F933F938F939F93AF93BF93E0
:100EC00080912F0290913002A0913102B0913202B4
:100ED00030912E0223E0230F2D3758F50196A11DE6
:100EE000B11D20932E0280932F0290933002A09385
:100EF0003102B09332028091330290913402A0917A
:100F00003502B09136020196A11DB11D80933302C6
:100F100090933402A0933502B0933602BF91AF9103
:100F20009F918F913F912F910F900FBE0F901F9027
:100F3000189526E8230F0296A11DB11DD2CF1F924E
:100F40000F920FB60F9211242F933F934F935F93FD
:100F50006F937F938F939F93AF93BF93EF93FF9381
:100F6000E0913902F0913A02309749F0A685B785B1
:100F70008585968D91FF14C09C918923A1F4FF91E2
:100F8000EF91BF91AF919F918F917F916F915F9101
:100F90004F913F912F910F900FBE0F901F9018957A
:100FA0009C91892361F7A389B4899C918589809557
:100FB00089238C93868997890197F1F7608D718DCC
:100FC000A685B785558538E020E0CB010197F1F77C
:100FD000822F90E095958795282F4C91452309F015
:100FE0002068315091F7868D81FD209580913802DF
:100FF00090E001968F73992730913702381799F056
:10100000A0913802B0E0A251BE4F2C9380933802D9
:10101000828D938D0197F1F7A389B4898C9195897D
:10102000892B8C93ACCF868D8160868FF1CFCF9248
:10103000DF92EF92FF9210924C0210924B0298EEC8
:10104000C92E93E0D92EE12CF12CC0924D02D09202
:101050004E02E0924F02F092500284E091E09093B1
:101060004A028093490285EC90E090935602809367
:10107000550284EC90E0909358028093570280ECE4
:1010800090E090935A028093590281EC90E0909303
:101090005C0280935B0282EC90E090935E0280930E
:1010A0005D0286EC90E09093600280935F02109264
:1010B0006202109263021092640210926502109212
:1010C0007B0310927A0388E291E0909379038093F6
:1010D000780388E080937C038FEF80937D0389E021
:1010E00080937E038AE080937F038BE0809380036C
:1010F0008CE0809381038DE08093820310928303C0
:101100001092840310928503109286031092870335
:1011100081E00E94EC0410925C0310925B03C09289
:101120005D03D0925E03E0925F03F092600386E17C
:1011300091E090935A038093590310927003109298
:101140006F03109272031092710310927403109245
:1011500073031092760310927503609177036E7F8C
:101160006D7F609377036695617081E0682788E002
:101170000E94D40261E088E00E940203E6EBF0E006
:10118000E491E0936903E2EAF0E0E491F0E0EE0F2D
:10119000FF1FE057FF4F8591949190936B038093CD
:1011A0006A0360E087E00E9402038091770381FD7B
:1011B00004C061E087E00E94D40287E08093650369
:1011C000E5EBF0E0E491E0936603E1EAF0E0E4911E
:1011D000F0E0EE0FFF1FEA57FF4F85919491909337
:1011E0006803809367034FEF5FEFBA014093E60215
:1011F0005093E7026093E8027093E9021092EE02C6
:101200001092EF021092F0021092F1028FEF99EC1F
:10121000AAE9BBE38093F6029093F702A093F80249
:10122000B093F9028093FE029093FF02A093000313
:10123000B09301038093060390930703A0930803E0
:10124000B093090380930E0390930F03A0931003B0
:10125000B09311038093160390931703A093180380
:10126000B093190340931E0350931F036093200310
:10127000709321038FEF90E09093270380932603D0
:1012800040932A0350932B0360932C0370932D03F8
:1012900040933203509333036093340370933503C8
:1012A00010923A0310923B0382E080934B0310921A
:1012B0004C0310924D0310924E0310924F03109264
:1012C0005003109251031092520310925403109243
:1012D0005303109256031092550310923C03FF9053
:1012E000EF90DF90CF900895789484B5826084BDAC
:1012F00084B5816084BD85B5826085BD85B581601A
:1013000085BD80916E00816080936E001092810097
:101310008091810082608093810080918100816052
:101320008093810080918000816080938000809113
:10133000B10084608093B1008091B000816080939F
:10134000B00080917A00846080937A0080917A0066
:10135000826080937A0080917A00816080937A0025
:1013600080917A00806880937A001092C10060E0DA
:1013700087E00E940203109274031092730310928C
:101380007203109271031092700310926F038DE933
:1013900091E0909376038093750390916503963165
:1013A00008F047C02DEB30E03093700320936F03BB
:1013B0002BE931E030937203209371032CE231E08A
:1013C00030937403209373032091680084E0983075
:1013D00048F031E09E3008F430E081E001C0880F31
:1013E0003A95EAF7822B809368002DE630E098303A
:1013F00050F02BE630E09E3030F02CE630E09631B5
:1014000010F030E020E030936D0320936C03292F1F
:1014100030E0983008F03DC281E001C0880F9A9515
:10142000EAF780936E03809175039091760301979C
:10143000F1F78091730390917403892B49F1E09146
:101440003902F0913A0223E0E935F20709F13097C9
:1014500039F0A389B4899C918589809589238C93DF
:10146000809177038E7F80937703109238021092D9
:10147000370289E593E090933A0280933902E09134
:101480006C03F0916D03808190916E03892B8083B2
:10149000E0915902F0915A0282E08083E091550276
:1014A000F09156021082E0915702F09158028FECB1
:1014B000808310926102E0915D02F0915E0286E00D
:1014C0008083E0915B02F0915C0280818061808387
:1014D000E0915B02F0915C02808188608083E09102
:1014E0005B02F0915C02808180688083E0915B0206
:1014F000F0915C0280818F7D808382E00E94EC0409
:1015000080E00E948D056FE371E088E793E00E9420
:10151000A10560ED77E080E090E00E945803D2E002
:101520003324339409E710E095EBA92E90E0B92E0F
:1015300021EA822E20E0922EF8018491F501F490A8
:10154000F401C491CC2309F4B1C181110E94AB0212
:10155000EC2FF0E0EE0FFF1FEA57FF4FA591B4917B
:101560008C91F82291E080E009F490E0909347029A
:10157000809348020E948A036B017C01C0E00E94B4
:101580008A036C197D098E099F09683E73408105A5
:10159000910508F44EC3CC2309F4DAC0C090F602DA
:1015A000D090F702E090F802F090F9024090FE022D
:1015B0005090FF026090000370900103809132030D
:1015C00090913303A0913403B09135038F3FEFEF37
:1015D0009E07AE07BE0781F00E948A032091320366
:1015E000309133034091340350913503DC01CB013A
:1015F000821B930BA40BB50B80933B0290933C0290
:10160000A0933D02B0933E0260E070E08AE794E46C
:10161000FFEFCF16F9ECDF06FAE9EF06FBE3FF0672
:1016200051F0C701B6010E948F1020E034E244E778
:1016300059E40E94EC0F609343027093440280933C
:1016400045029093460260E070E08AE794E42FEF51
:10165000C21629ECD2062AE9E2062BE3F20651F083
:10166000C301B2010E948F1020E034E244E759E444
:101670000E94EC0F60933F027093400280934102FE
:10168000909342020E94E40480E00E948D056FE383
:1016900071E088E793E00E94A10581E00E948D053A
:1016A00069E571E088E793E00E94A10564EF71E0CD
:1016B00080E090E00E9458030E94E40480E00E94D1
:1016C0008D056BE671E088E793E00E94A105C0906C
:1016D0004302D0904402E0904502F090460220E0A0
:1016E00030E04AE754E4C701B6010E94E70F8111D8
:1016F00003C0C12CD12C760126E0B701A60188E7F2
:1017000093E00E940F0681E00E948D0565E771E07D
:1017100088E793E00E94A105C0903F02D09040026C
:10172000E0904102F090420220E030E04AE754E4C9
:10173000C701B6010E94E70F811103C0C12CD12C53
:10174000760126E0B701A60188E793E00E940F0624
:101750008091470290914802009709F07BC380E88E
:1017600091E00E94FC058AE891E00E94FC058EEA67
:1017700091E00E94FC058FE391E00E94FC0587EC5C
:1017800091E00E94FC0564E670E080E090E00E9439
:10179000580389E591E00E94FC0564E670E080E072
:1017A00090E00E9458038BE691E00E94FC05C090F7
:1017B0004302D0904402E0904502F090460220E0BF
:1017C00030E04AE754E4C701B6010E94E70F8111F7
:1017D00003C0C12CD12C760126E0B701A60189E512
:1017E00093E00E940F0660E371E089E593E00E94B8
:1017F000A10585E791E00E94FC05C0903F02D090D2
:101800004002E0904102F090420220E030E04AE7DE
:1018100054E4C701B6010E94E70F811103C0C12C37
:10182000D12C760126E0B701A60189E593E00E945C
:101830000F0660E371E089E593E00E94A10568EC82
:1018400070E080E090E00E9458036AE189E593E04F
:101850000E94AF0360E371E089E593E00E94A10577
:1018600064E670E080E090E00E94580360ED77E06D
:1018700080E090E00E94580380E090E0892B09F41A
:101880005BCE0E940802882309F44CCE0E9400001F
:1018900049CE9E3040F42850310981E001C0880FC4
:1018A0002A95EAF7BECD2E503109F7CF90E080E0BF
:1018B0005DCECA3209F4E8C1CC3209F0B7C28091DA
:1018C0003A038C2780933A03DFC12156263018F45F
:1018D00087559109F3C1C097F1C19156963018F41C
:1018E00027553109FAC120533109F7C180910A0304
:1018F00090910B03A0910C03B0910D03809306030C
:1019000090930703A0930803B09309038091EA0220
:101910009091EB02A091EC02B091ED028093E6026F
:101920009093E702A093E802B093E9028091FA0253
:101930009091FB02A091FC02B091FD028093F6020F
:101940009093F702A093F802B093F90280910203FA
:1019500090910303A0910403B09105038093FE02CC
:101960009093FF02A0930003B0930103809128039A
:10197000909129039093270380932603809122035B
:1019800090912303A0912403B091250380931E031B
:1019900090931F03A0932003B093210339C2809139
:1019A00055039091560301969093560380935503E7
:1019B0002FC291111CC04CE353E0ADE4B1E0CA0169
:1019C000FC012191CF01222309F44CC23D91231740
:1019D000B9F3A3E5B1E0FA018191AF01882309F4DD
:1019E00044C29D918917B9F3D0934B0311C2E09182
:1019F0004B03E23009F40CC280913C03882309F4C4
:101A000007C220E2E29FF0011124E92B3197E9326D
:101A1000F10508F0FDC1E15FF24F0C94FC11550D8A
:101A2000700D850DA00DAB0DE50DEC0DF60D010E45
:101A3000080F080F080F080F080F080F080F080FEE
:101A4000080F080F080F080F080F080F080F080FDE
:101A5000080F080F080F080F080F080F080F550D83
:101A60006A0D700D850DA00DAB0DC60DD10D380D95
:101A7000ECE3F3E020E030E0A901719080ED870D08
:101A80008A3008F099C0AAE0B0E00E940212272D27
:101A9000770C330B440B550B260F371F481F591F6C
:101AA0002053310941095109E8CF0E948D0060930C
:101AB000EA027093EB028093EC029093ED020E9495
:101AC0008A0360932E0370932F03809330039093C7
:101AD00031039EC191E0813409F47BC090E079C06C
:101AE0000E94FF006093FA027093FB028093FC0255
:101AF0009093FD020E948A0360933603709337032C
:101B0000809338039093390383C1833509F080C1F2
:101B10008091FA029091FB02A091FC02B091FD022B
:101B2000B095A095909581959F4FAF4FBF4F8093F3
:101B3000FA029093FB02A093FC02B093FD0268C1ED
:101B40000E94FF00609302037093030380930403D9
:101B5000909305035DC1873509F05AC18091020356
:101B600090910303A0910403B0910503B095A09553
:101B7000909581959F4FAF4FBF4F809302039093F5
:101B80000303A0930403B093050342C10E948D0098
:101B900060931203709313038093140390931503BF
:101BA00037C10E948D0060931A0370931B038093CA
:101BB0001C0390931D032CC12093F2023093F30277
:101BC0004093F4025093F50223C191E081330CF469
:101BD00085CF90934E031CC18CE393E00E94540F79
:101BE0009927909329038093280312C10E948D00A6
:101BF000609322037093230380932403909325031F
:101C000007C10E948D0060930A0370930B038093B9
:101C10000C0390930D03FCC010924D0310924C03E3
:101C200010923A03D0934B0310923B0310924E0351
:101C3000C1E089E492E00E94FC01892B09F49FCC69
:101C400089E492E00E94DA01C82F80914F039091BD
:101C50005003A0915103B09152030196A11DB11DF3
:101C600080934F0390935003A0935103B09352037A
:101C7000C43291F2E0914D03C5320CF01ACECA3055
:101C800019F0CD3009F0D2C0EF3008F0C1C090910A
:101C90004C03F0E0E45CFC4F108280913B0388230E
:101CA00009F487CE20913C03822F022E000C990B61
:101CB0003FEB320F363008F008CEC7978295807F11
:101CC00090913D03292F092E000C330B4FEB490F48
:101CD000463008F002CE27533109820F90913A0323
:101CE00089135DCE80914E03882309F491C08091C1
:101CF000530390915403019690935403809353039C
:101D000080912E0390912F03A0913003B091310365
:101D100080932A0390932B03A0932C03B0932D035D
:101D20008091360390913703A0913803B091390325
:101D30008093320390933303A0933403B09335031D
:101D400080914B03882309F4D1CD813009F060C024
:101D50008091EA029091EB02A091EC02B091ED0229
:101D60008093E6029093E702A093E802B093E90221
:101D70008091F2029091F302A091F402B091F502E9
:101D80008093EE029093EF02A093F002B093F102E1
:101D90008091FA029091FB02A091FC02B091FD02A9
:101DA0008093F6029093F702A093F802B093F902A1
:101DB0008091020390910303A0910403B091050365
:101DC0008093FE029093FF02A0930003B09301035F
:101DD0008091120390911303A0911403B091150305
:101DE00080930E0390930F03A0931003B0931103FD
:101DF00080911A0390911B03A0911C03B0911D03C5
:101E00008093160390931703A0931803B0931903BC
:101E100080914C038F5F80934C0310924D0381E0BF
:101E2000CA3209F080E080933B0302CFEE3040F4E9
:101E300081E08E0F80934D03F0E0E45CFC4FC083A3
:101E400080913B038111F4CE80913A03C827C0935F
:101E50003A03EECE019709F009CD8BEE91E00E9496
:101E6000FC0504CD30924B03D3CF10924B03D0CF5F
:101E700086E191E090935A0380935903809139024F
:101E800090913A028955934071F4E0916C03F0917E
:101E90006D03908180916E038095892380831092D9
:101EA0003A02109239020895FC0188279927E89494
:101EB00021912032E9F3293010F02E30C8F32B3273
:101EC00041F02D3239F4689404C00E94720F820FE1
:101ED000911D219120532A30C0F31EF490958195D5
:101EE0009F4F08957AE0979F902D879F802D910DA9
:101EF000112408955058BB27AA270E94920F0C94D2
:101F000005110E94F71038F00E94FE1020F039F4FD
:101F10009F3F19F426F40C94F4100EF4E095E7FBBF
:101F20000C94EE10E92F0E94161158F3BA176207AD
:101F300073078407950720F079F4A6F50C943811FF
:101F40000EF4E0950B2EBA2FA02D0B01B9019001D4
:101F50000C01CA01A0011124FF27591B99F0593F18
:101F600050F4503E68F11A16F040A22F232F342F60
:101F70004427585FF3CF469537952795A795F040AE
:101F80005395C9F77EF41F16BA0B620B730B840BC3
:101F9000BAF09150A1F0FF0FBB1F661F771F881F7B
:101FA000C2F70EC0BA0F621F731F841F48F48795D3
:101FB00077956795B795F7959E3F08F0B0CF9395C5
:101FC000880F08F09927EE0F9795879508950E943E
:101FD000CA1008F481E008950E9400100C940511C5
:101FE0000E94FE1058F00E94F71040F029F45F3F65
:101FF00029F00C94EE1051110C9439110C94F4103A
:102000000E94161168F39923B1F3552391F3951BA0
:10201000550BBB27AA2762177307840738F09F5F09
:102020005F4F220F331F441FAA1FA9F335D00E2E76
:102030003AF0E0E832D091505040E695001CCAF7E3
:102040002BD0FE2F29D0660F771F881FBB1F2617A6
:1020500037074807AB07B0E809F0BB0B802DBF017D
:10206000FF2793585F4F3AF09E3F510578F00C944C
:10207000EE100C9439115F3FE4F3983ED4F386954B
:1020800077956795B795F7959F5FC9F7880F911D6D
:102090009695879597F90895E1E0660F771F881F59
:1020A000BB1F621773078407BA0720F0621B730B0C
:1020B000840BBA0BEE1F88F7E09508950E941E115D
:1020C00088F09F5798F0B92F9927B751B0F0E1F0F9
:1020D000660F771F881F991F1AF0BA95C9F714C0A9
:1020E000B13091F00E943811B1E008950C9438118C
:1020F000672F782F8827B85F39F0B93FCCF38695E2
:1021000077956795B395D9F73EF49095809570953E
:1021100061957F4F8F4F9F4F0895E89409C097FBBB
:102120003EF490958095709561957F4F8F4F9F4FAE
:102130009923A9F0F92F96E9BB279395F6958795F2
:1021400077956795B795F111F8CFFAF4BB0F11F4B5
:1021500060FF1BC06F5F7F4F8F4F9F4F16C088235C
:1021600011F096E911C0772321F09EE8872F762F92
:1021700005C0662371F096E8862F70E060E02AF0D3
:102180009A95660F771F881FDAF7880F96958795BF
:1021900097F90895990F0008550FAA0BE0E8FEEF94
:1021A00016161706E807F907C0F012161306E4071B
:1021B000F50798F0621B730B840B950B39F40A2614
:1021C00061F0232B242B252B21F408950A2609F4F2
:1021D000A140A6958FEF811D811D089597F99F67F6
:1021E00080E870E060E008959FEF80EC089500249F
:1021F0000A941616170618060906089500240A946C
:1022000012161306140605060895092E0394000CF1
:1022100011F4882352F0BB0F40F4BF2B11F460FF80
:1022200004C06F5F7F4F8F4F9F4F089557FD9058A9
:10223000440F551F59F05F3F71F04795880F97FB8A
:10224000991F61F09F3F79F0879508951216130644
:102250001406551FF2CF4695F1DF08C01616170673
:102260001806991FF1CF86957105610508940895A8
:10227000E894BB2766277727CB0197F908950E943A
:10228000CA1008F48FEF08950E9457110C9405119D
:102290000E94F71038F00E94FE1020F0952311F0F4
:1022A0000C94EE100C94F41011240C9439110E942B
:1022B000161170F3959FC1F3950F50E0551F629F63
:1022C000F001729FBB27F00DB11D639FAA27F00D8F
:1022D000B11DAA1F649F6627B00DA11D661F829FB6
:1022E0002227B00DA11D621F739FB00DA11D621F9B
:1022F000839FA00D611D221F749F3327A00D611DB8
:10230000231F849F600D211D822F762F6A2F112499
:102310009F5750409AF0F1F088234AF0EE0FFF1FCC
:10232000BB1F661F771F881F91505040A9F79E3F23
:10233000510580F00C94EE100C9439115F3FE4F3DA
:10234000983ED4F3869577956795B795F795E79579
:102350009F5FC1F7FE2B880F911D9695879597F982
:1023600008950E94CA10880B990B0895DB018F9382
:102370009F930E940212BF91AF91A29F800D911D69
:10238000A39F900DB29F900D1124089597FB072EE7
:1023900016F4009407D077FD09D00E94151207FCAF
:1023A00005D03EF4909581959F4F08957095619565
:1023B0007F4F0895A1E21A2EAA1BBB1BFD010DC081
:1023C000AA1FBB1FEE1FFF1FA217B307E407F507E5
:1023D00020F0A21BB30BE40BF50B661F771F881FC1
:1023E000991F1A9469F760957095809590959B0157
:1023F000AC01BD01CF010895EE0FFF1F0590F491D0
:10240000E02D09940E942912A59F900DB49F900D74
:10241000A49F800D911D11240895B7FF0C94021202
:102420000E940212821B930B0895AA1BBB1B51E151
:1024300007C0AA1FBB1FA617B70710F0A61BB70B34
:10244000881F991F5A95A9F780959095BC01CD01D9
:102450000895A29FB001B39FC001A39F700D811D7D
:102460001124911DB29F700D811D1124911D08959D
:1024700010E0C2E6D0E004C0FE010E94FC112196EB
:0A248000C336D107C9F7F894FFCF67
:10248A00000000003E029E01CB018B02FC01DA0132
:10249A00EE0100000000AF039E014504AE030B04E9
:1024AA0023049603000000009B059E014504440492
:1024BA000D0A006E616E00696E66006F76660053E3
:1024CA006D617274204B6579204750530047505212
:1024DA004D4300475047474100594F5552204750F6
:1024EA0053204C4F434154494F4E004C4154495498
:1024FA005544453A004C4F4E4749545544453A00D5
:10250A0041542B434D47463D31004D657373616716
:10251A00652066726F6D20534D415254204B4559C8
:10252A00204750532053797374656D2E2E00415401
:10253A002B434D47533D222B323637203732353025
:10254A0030303030220D002D2D2D2D2D2D2D2D2DFD
:10255A002D2D2D2D2D2D2D2D2D2D2D2D2D2D2D2DA1
:0E256A002D2D2D2D2D2D2D2D2D2D0020000081
:107E0000112484B714BE81FFF0D085E080938100F7
:107E100082E08093C00088E18093C10086E0809377
:107E2000C20080E18093C4008EE0C9D0259A86E02C
:107E300020E33CEF91E0309385002093840096BBD3
:107E4000B09BFECF1D9AA8958150A9F7CC24DD24C4
:107E500088248394B5E0AB2EA1E19A2EF3E0BF2EE7
:107E6000A2D0813461F49FD0082FAFD0023811F036
:107E7000013811F484E001C083E08DD089C08234E0
:107E800011F484E103C0853419F485E0A6D080C0E4
:107E9000853579F488D0E82EFF2485D0082F10E0AE
:107EA000102F00270E291F29000F111F8ED06801E7
:107EB0006FC0863521F484E090D080E0DECF843638
:107EC00009F040C070D06FD0082F6DD080E0C81688
:107ED00080E7D80618F4F601B7BEE895C0E0D1E017
:107EE00062D089930C17E1F7F0E0CF16F0E7DF06D8
:107EF00018F0F601B7BEE89568D007B600FCFDCFD4
:107F0000A601A0E0B1E02C9130E011968C91119780
:107F100090E0982F8827822B932B1296FA010C0160
:107F200087BEE89511244E5F5F4FF1E0A038BF0790
:107F300051F7F601A7BEE89507B600FCFDCF97BE46
:107F4000E89526C08437B1F42ED02DD0F82E2BD052
:107F50003CD0F601EF2C8F010F5F1F4F84911BD097
:107F6000EA94F801C1F70894C11CD11CFA94CF0C13
:107F7000D11C0EC0853739F428D08EE10CD085E9AC
:107F80000AD08FE07ACF813511F488E018D01DD067
:107F900080E101D065CF982F8091C00085FFFCCF94
:107FA0009093C60008958091C00087FFFCCF809118
:107FB000C00084FD01C0A8958091C6000895E0E648
:107FC000F0E098E1908380830895EDDF803219F02E
:107FD00088E0F5DFFFCF84E1DECF1F93182FE3DFCA
:107FE0001150E9F7F2DF1F91089580E0E8DFEE27F6
:047FF000FF270994CA
:027FFE00040479
:0400000300007E007B
:00000001FF
